:020000040000FA
:10000000C81F0010C5010000C9010000CB0100009D
:10001000CD010000CF010000D10100000000000070
:10002000000000000000000000000000D3010000FC
:10003000D501000000000000D7010000D901000038
:10004000DB01000021E20000DB010000DB01000019
:10005000DB010000D1E200006DE40000DB010000E4
:10006000DB010000DB010000DB010000DB01000020
:100070007D850000DB01000065CB0000B9CC0000ED
:10008000DB010000DB010000DB010000DB01000000
:10009000DB010000DB010000DB010000DB010000F0
:1000A000DB010000DB010000DB010000DB010000E0
:1000B000DB010000DB010000DB010000DB010000D0
:1000C000DB010000DB010000DB01000000F002F8B2
:1000D00000F060F80AA090E8000C82448344AAF182
:1000E0000107DA4501D100F055F8AFF2090EBAE880
:1000F0000F0013F0010F18BFFB1A43F0010318475C
:10010000F83E0100183F01000A4410F8014B14F0BA
:100110000F0508BF10F8015B240908BF10F8014B58
:100120006D1E05D010F8013B6D1E01F8013BF9D1A1
:10013000641E03D0641E01F8015BFBD19142E4D33D
:10014000704700000023002400250026103A28BF35
:1001500078C1FBD8520728BF30C148BF0B60704739
:10016000662913F03486642900F0828000207047ED
:100170001FB500F0DDFC04000020002112F016FF86
:10018000401C60600020002112F0FAFEE0601FBDFC
:1001900010B510BD00F03CFE1146FFF7E9FF0FF06F
:1001A0000FFC01F0BBF803B4FFF7F2FF03BC01F052
:1001B00029FB000072B64FF00000704762B64FF0A6
:1001C0000000704708480047FEE7FEE7FEE7FEE74D
:1001D000FEE7FEE7FEE7FEE7FEE7FEE70348044929
:1001E000024A044B70470000CD000000C817001001
:1001F000C81F0010C81700100FB41CB5074B06AA83
:100200007B4469460090059800F0E3FB00206946B6
:1002100000F0F2FB1CBC5DF814FB0000F5070000C9
:1002200070B5044685690068C10601D5302600E036
:100230002026C00707D070BDD4E901213046904781
:10024000206A401C20626D1EF6D570BD70B5044654
:1002500085690078C00707D170BDD4E9012120204D
:100260009047206A401C20626D1EF6D570BD0000CC
:100270002DE9F0410646002410687529314616A57F
:1002800010D0AFF30080002802DA404213A507E047
:1002900031688A0701D512A502E0490704D511A5E6
:1002A000012401E0AFF3008000210A2206F12407B7
:1002B00009E0B0FBF2FCB0FBF2F302FB1C003030B3
:1002C00078541846491C0028F3D123462A46304664
:1002D000BDE8F04100F011B9000000002D00000061
:1002E0002B0000002000000070477047704700009E
:1002F000004870476417001070477047FFFFFFFF0A
:100300002DE9F05F894604464FF0000ADFF824B17A
:10031000FB44C0F820A02046E168884700287DD033
:10032000252806D0D4E901219047206A401C20628C
:10033000F1E700255F462046E16888472028064609
:1003400007DB312E05D2B81910F8200C08B105438F
:10035000F1E7A80701D525F00405C4F81CA0002783
:10036000C4F818A02A2E09D030460EF0FCFA38B393
:1003700004EB8708303EC8F8186019E059F8041BF0
:10038000204604EB87029161E1688847012F064609
:1003900018D1E069002820DA25F020051DE0D8F802
:1003A000180000EB800006EB40003038C8F8180059
:1003B0002046E168884706460EF0D5FA0028EED1BF
:1003C000012F0AD02E2E08D12046E16888477F1CD5
:1003D0000646022F45F02005C4DBA069002803DA99
:1003E000404245F00105A061E80701D025F0100565
:1003F000A6B1A6F14100192802D8203645F40065BF
:100400004A463146204625604D46FFF7A9FE60B1B9
:10041000012807D0ED1D25F0070000E007E000F1FE
:10042000080978E705F1040975E730467AE7206A9C
:10043000BDE8F09F3C3C010070B50646FFF758FF51
:100440000468054630460A22002100F02DFB2C608E
:1004500070BD4FF000020429C0F0128010F0030CB0
:1004600000F01B80CCF1040CBCF1020F18BF00F8A7
:10047000012BA8BF20F8022BA1EB0C0100F00DB856
:100480005FEAC17C24BF00F8012B00F8012B48BFB4
:1004900000F8012B70474FF0000200B51346944658
:1004A0009646203922BFA0E80C50A0E80C50B1F1CC
:1004B0002001BFF4F7AF090728BFA0E80C5048BFE0
:1004C0000CC05DF804EB890028BF40F8042B08BF7E
:1004D000704748BF20F8022B11F0804F18BF00F87A
:1004E000012B704710B5FFF703FF006810BD10B572
:1004F0000446FFF7FDFE046010BD2DE9F0470D46F0
:1005000099469246044600F124080168880604D5FD
:10051000E06921F01001216000E00120A84201DD26
:10052000471B00E00027A1697A1902EB0900081AAD
:10053000A0612078C00602D42046FFF771FE002695
:1005400008E0D4E901211AF806009047206A401C0F
:10055000761C20624E45F4DB2078C0060AD5204682
:10056000FFF75EFE06E0D4E9012130209047206AC3
:10057000401C2062381EA7F10107F4DC07E0D4E933
:10058000012118F805009047206A401C2062281EAF
:10059000A5F10105F3DC2046FFF758FE20780006A0
:1005A00002D50220BDE8F0870120FBE770472DE966
:1005B000FF4F0C461E464FF0FF378BB0D2E90001CB
:1005C000DDF860800A908A46C1F30A5505B93D46B8
:1005D000002108464FF00000BAF1000F00F440007F
:1005E00005DA00EB80004FF4400101EA50004FEAC9
:1005F0009059B9F1010F00DDB9460A9850EA4A0056
:100600000ED044F61050A5F2FF3545432F14B8F133
:10061000000F1ED07542291E1EDDC9F100021CE02C
:10062000B8F1010F4FF0000001D0302103E0F24398
:1006300005E02154401CB042FBDB30460022002183
:1006400021540B99C1F80880C1E900200FB0BDE822
:10065000F08FBD1B6D1CDEE74A4600DA694206A832
:1006600000F068FB06AB93E8070003AB83E80700E4
:1006700050460A9901F0DFF88DE80700A0F5005018
:100680001F3800900398002D09DD42F21F014A46F1
:10069000084403A90390684601F069FB08E0A0F54F
:1006A00000504A461F3803A90390684601F087FBB3
:1006B0008DE807000004000C03D04FF0FF30410824
:1006C00000E01046B8F1000F03D00022009215465A
:1006D0001EE0751E05D400F02FFA303262556D1EF3
:1006E000F9D5B3460122084302D000227F1C04E062
:1006F0002078302801D100227F1E002A099786D059
:100700001DE0112D07DA00F017FA303262556D1C2A
:1007100050EA0102F5D1084302D00098C8B10EE0BA
:100720000021681E05E0235C625C63542254401E75
:10073000491C8142F7DBAB46A81B401E09900020F4
:1007400004F80B000B98099AC0F80880C0E9002B48
:100750007CE711264FF0000859E72DE9F04F884655
:100760000446D21D22F0070191B0D1E90001CDE984
:100770000A010EF07DF802460B98C00F01D02D2023
:1007800007E02068810701D52B2002E0202101EA43
:10079000C000032A099001D0072A05DB0346414621
:1007A000204600F017FA0BE12078800601D5E069B9
:1007B00000E00620B8F1650F814606D0B8F1660F5B
:1007C00018D0B8F1670F70D131E00020B9F1110FE6
:1007D000009001DB112301E009F101030AAA01A93C
:1007E0000CA8FFF7E4FEDDE90C70002609F1010515
:1007F000834647E001204B4600904FF000470AAA8D
:1008000001A90CA8FFF7D3FEDDE90DB00C995D46F8
:10081000002610B909F101000D18B9EB050003D449
:10082000C0F1FF3609F10105A5EB09002BE0B9F194
:10083000010F01DA4FF001090020B9F1110F00900A
:10084000484601DD112300E003460AAA01A90CA8CD
:10085000FFF7ADFEDDE90C704D460026834620789B
:1008600000070AD4AB4500DA5D4601A8012D04DD7E
:10087000411911F8011C302907D04F4502DA17F150
:10088000040F04DA012082460FE06D1EEEE7002F10
:1008900002DCED1B3E4403E0781CA84200DD7D1C19
:1008A000B81B00F1010A4FF000472078000703D47D
:1008B000AA4501DB4FF0FF3A0021B7F1004F0DF1DF
:1008C00043088DF8431024D002202B23002F01DA97
:1008D0007F422D230A21021EA0F1010000DC5FB13E
:1008E00097FBF1FC97FBF1F201FB1C7C17460CF126
:1008F000300C08F801CDEEE7A8F101000370218863
:10090000090501D5452100E06521A0F1010800F8A5
:10091000011C09980FA9A1EB0807FF1D00B10120D8
:10092000411901EBEA70A1693844081A401EA06120
:100930002078C00602D42046FFF772FC099828B13F
:10094000D4E901219047206A401C20622078C0062B
:1009500022D52046FFF764FC1EE0002E04DBB345E1
:1009600002DD01A8805D00E03020D4E9012190473C
:10097000206A401C2062761CAAF101005FEA000A8E
:100980000AD100F0D5F8C0680168405CD4E90121C3
:100990009047206A401C2062281EA5F10105DCDC7E
:1009A00007E0D4E9012118F8010B9047206A401CA8
:1009B0002062381EA7F10107F3DC2046FFF746FC52
:1009C000032011B043E6000001694A1C0261087867
:1009D000704700B58FB0CDE901310021059105497F
:1009E0007944CDE9031011466846FFF789FC0FB042
:1009F00000BD0000E5FFFFFF0A6802F8010B0A6076
:100A0000704700000FB4002300B589B00CA9009115
:100A10000B99CB60214B7B440693214B7B4407937E
:100A200004236FF00042CDE901321E4A7A446B463E
:100A300008920246002013F02CFA09B05DF814FB6E
:100A400070B506464FF0FF3015460C46324686B06C
:100A50000091CDE9010169460020049004A8FFF748
:100A6000D1FF02460498211825B108B1084600E0DC
:100A700020462860049800280DD0002A02DD009846
:100A8000884208D03246081B69460094CDE901042B
:100A900004A8FFF7B7FF06B070BD00003B020000DE
:100AA00053020000930100002DE9F04791460F46E4
:100AB00080460446002614F8015B2DB100F030F8A2
:100AC0000068405DC007F6D12B2D02D02D2D18D027
:100AD000641E4A463946204600F0DCF827B13968E2
:100AE000A14201D1C7F800804FF0020471050BD577
:100AF0004042002803DDFFF7FBFB0460A007BDE8D0
:100B0000F08746F48066E4E70028F8DAFFF7F0FBA8
:100B100004606FF00040F2E700487047641700106F
:100B200010B500F005F8001D10BD00BF81240100C4
:100B3000004870478417001030B5B0F10A024FEA40
:100B4000900E71F100034EEA817EB0EB0E0061EB76
:100B500091014FEA101E4EEA017E10EB0E0041EBB0
:100B600011114FEA102E4EEA016E10EB0E0041EB10
:100B700011214FEA104E4EEA014E10EB0E0041EBF0
:100B80001141401841F100014FEAD00040EA4170A4
:100B90004FEAD10110EB80054FEA810444EA9074DA
:100BA00044EB01046D1944EB0404521BA3414FF0C4
:100BB000000348BF0A3200D530BD401C41F100019E
:100BC00030BD10B50446FFF7ABFF0068005D00F0D4
:100BD000010010BD2DE9F0411F46044603260168BF
:100BE000072A01F4006004DB08B116A505E016A58C
:100BF00003E008B115A500E015A521F01000206064
:100C0000A069C01EA0610FB1401EA0612046FFF781
:100C100007FB4FB1D4E9012138469047206A401CB8
:100C20002062C01C206206E0206AFAE7D4E90121B4
:100C300015F8010B9047761EF8D22046FFF706FB09
:100C4000BDE8F0814E414E006E616E00494E460097
:100C5000696E6600426842B1016811F8013B23B138
:100C6000521EC0E90012184670470121C160881E5B
:100C7000704742685AB1C368016843B983688B42C0
:100C800005D0491E521CC0E90012002070474FF0E9
:100C9000FF3070472DE9F05F824615468B460027EE
:100CA0000AF10104B9460078302801D09DB113E063
:100CB00014F8010B0127782803D0582801D045B13A
:100CC0000AE00DB1102D07D1002714F8010B1025F3
:100CD00002E0082500E00A250026B0460EE005FBEC
:100CE000080005FB06F101271FFA80F801EB10460A
:100CF000B6F5803F00D3B94614F8010B294600F041
:100D0000ACF80028EBDABBF1000F05D00FB1641E80
:100D100000E05446CBF80040B9F1000F06D0FFF7D1
:100D2000E7FA02210160C81EBDE8F09F48EA0640CC
:100D3000FAE700002DE9F047814616468AB03348AD
:100D400078440DC88DE80D0030487844801C03AC11
:100D50000DC884E80D0041F69B300844372190FB14
:100D6000F1F290FBF1F5A5F1800501FB12041B3CAB
:100D700002D56442012000E00020DFF890A0804608
:100D80000027FA44AAF1BE0A0DE0E00709D0324676
:100D9000684607EB47010AEB810101F010F88DE886
:100DA000070064107F1C002CEFD1184F7F44AC3F2C
:100DB00018E0E80714D007EB04100DF1180A90E8CA
:100DC0000E008AE80E00C068F04201D19819089020
:100DD000324606A903A800F0F2FF03AB83E8070040
:100DE0006D10641C002DE4D132466946B8F1000F45
:100DF00003A802D000F0BBFF01E000F0E0FFC9E96A
:100E00000001C9F808200AB0BDE8F0879C32010053
:100E10007546FFF781FEAE4605006946534620F051
:100E20000700854618B020B5FFF7D8F9BDE8204087
:100E30004FF000064FF000074FF000084FF0000B96
:100E400021F00701AC46ACE8C009ACE8C009ACE849
:100E5000C009ACE8C0098D4670473A2800D2303846
:100E600020F02002412A01D3A2F13700884201D3A9
:100E70004FF0FF30704700002DE9FF4F064689B064
:100E80000878FF2806D0491C2D2805D000244FF0F3
:100E9000000908E000200CE00124F8E709EB8903D1
:100EA000491C00EB43090878FF28F7D114B1C9F1B8
:100EB00000008146107800252C46AA4629462D2898
:100EC00001D02B2804D1521C2D2813D0002082469B
:100ED0008B461078FF280FD04FF0000C0A21521CCF
:100EE000A5FB017804FB018105FB0C11C5194BEB37
:100EF0000104EEE70120EAE7002108464FF0000078
:100F0000BAF1000F02D000EB80004008C0F3815816
:100F1000B8F1010F01DD4FF0FF380C9809EB000725
:100F200055EA040009D04FF0020917F5FA7F0BDAF1
:100F30004FEACA70C6E900B012E04FEACA70C6E9CB
:100F400000B00DB0BDE8F08FB7F5FA7F0DDDF048C9
:100F50007844D0E90010C6E9001040EACA70706019
:100F6000FFF7C6F9C0F80090EBE7391E02DAC8F1C6
:100F7000000200E0424600DA794206A8FFF7DAFEF6
:100F800006AB93E8070003AB83E8070044F23E009A
:100F90005BEA04010090584604D144F21E012C463D
:100FA0005D460091210C0904014306D100992404F7
:100FB00044EA15442D041039009104F07F410143A7
:100FC00006D10099240244EA15642D0208390091E3
:100FD00004F07041014306D10099240144EA1574DC
:100FE0002D01091F009104F04041014306D10099F1
:100FF000A40044EA9574AD00891E009104F00041FC
:10100000084304D100986D196441401E0090424687
:101010006846002FCDE9014503A902DD00F0E3FE9B
:1010200001E000F0B8FEBAF1000F04460D4601D011
:1010300084F0004440F2FF7724F00040284303D0BE
:10104000C4F30A50B84212D1FFF752F9C0F8009029
:10105000C4F30A50B8420AD1AE487844D0E900102F
:10106000C6E9001004F000410843706069E7C6E972
:10107000005466E72DE9FF4F1F464FF0000A4FF07E
:10108000FF38454691B0D7E90146CDF83CA0FFF7BF
:101090004FFDC0680168405C1090B96912986D1CE2
:1010A0008847396A814688470028F6D1B9F1FF3F61
:1010B0000AD0002E24F4D06411DDB9F12B0F08D032
:1010C000B9F12D0F0BD102E0404615B03AE744F4D8
:1010D0008064B96912986D1C8847761E8146600548
:1010E00004A901D52D2000E02B20002E01F1010BD9
:1010F0000DF130088DF810003FDDB9F1690F08D00F
:10110000B9F1490F05D0B9F16E0F02D0B9F14E0F08
:101110001CD13B4601A8009580E85002DDE912127F
:101120006FF0020012F0B9FEC11CCED10EE0B96919
:1011300012986D1C884781461398761E44F40074FB
:1011400005600F98401C002E0F9016DDB9F1300F8E
:10115000EDD0B9F1780F02D0B9F1580F0DD10F9839
:1011600001280AD13B46CDE90054DDE91212001FE7
:10117000029612F090FEC11CA7D1109989453ED16C
:1011800044F0800406E01399681CAAF1010A44F4B3
:1011900000740860B9696D1C1298761E8847302863
:1011A0008146F0D02BE01099894505D1200603D463
:1011B000761E44F0800418E048460DF0D4FB08B3D6
:1011C000761E0DF123018B4544F4007408D2A9F179
:1011D00030000BF8010B200607D5AAF1010003E04F
:1011E000200602D40AF101008246A00502D5139917
:1011F000681C0860B96912986D1C88478146002EEA
:10120000D1DC53E0002E51DDB9F1650F02D0B9F108
:10121000450F4BD1A00549D5B9696D1C1298761EB2
:1012200024F440748847002E81460CDD2B2804D01E
:10123000B9F12D0F07D144F48074B96912986D1C6F
:101240008847761E8146E00501D52D2100E02B213F
:1012500008F8011BCDF8008021E0761E0DF1390160
:10126000884544F400740CD2A9F1300010F0FF005E
:1012700088F8000002D10099884509D908F10108D1
:1012800006E0E00501D5244801E042F20F708246F5
:10129000B96912986D1C8847814613980560002E25
:1012A00004DD48460DF05FFB0028D6D1F96912989D
:1012B0008847FF2053468BF8000088F80000002084
:1012C0000A900B9004AA0CA90AA8FFF7D5FDA00567
:1012D00002D46FF00100F8E614F0240F0AD0E00702
:1012E00014D13868DDE90A12031D3B600068C0E9CB
:1012F00000120BE00AA968460DF0DEFAE00705D1FE
:101300003868009A011D3960006802602846DCE6F2
:10131000C4300100BA2F0100F1D8FFFF10B5044618
:10132000AFF300802046BDE81040FEF73CBF000050
:101330004FF0013C50F8042B51F8043B9A4221D164
:10134000A2EB0C03934313EACC1317D150F8042BF0
:1013500051F8043B9A4215D1A2EB0C03934313EAD4
:10136000CC130BD150F8042B51F8043B9A4209D10D
:10137000A2EB0C03934313EACC13DBD04FF0000035
:10138000704700BFD01A01BAB1FA81F101F018011B
:1013900022FA01F0CB40C1F12001DBB2C0B2C01A89
:1013A0002CFA01F3D11A914311EAC311E6D1704727
:1013B0002DE9FF4F1F464FF03C0987B04FF0004228
:1013C000DDE9141001F10108DDF858A002EA4050EF
:1013D0000390002005908346054604460490B969B1
:1013E000461E08988847AAF1010A0290BAF1000F38
:1013F0003BDD02982E2815D01021FFF72EFD002886
:101400002EDB4FF0010B0599014317D0B9F1000F06
:101410000BDB4A46C11700F0FBF905430C43A9F169
:10142000040905E0012004900BE008B145F0010536
:1014300001200590049820B9361D02E0049800B1FF
:10144000361FB969089808F101088847BBF1000FF9
:10145000AAF1010A0290C9D00999C1F80080C5E734
:101460000298702808D0502806D0F9690898884753
:10147000BBF1000F14D04FE0002002900120BBF11F
:10148000000F049009D0B969089808F1010888474D
:10149000AAF10109B9F1000F07DCF969089888473A
:1014A0006FF001000BB0BDE8F08F2B2804D02D2881
:1014B0000CD14FF0FF300490B969089808F1010889
:1014C0008847A9F10109B9F1000FE6DD411CE4D01C
:1014D0000A21FFF7C2FC0028DFDB029908F10108AE
:1014E00001EB810100EB41000290B969089888473F
:1014F0000A21FFF7B2FC099AA9F10109B9F1000F1D
:10150000C2F8008001DD0028E7DAF9690898884709
:101510000499029800FB016655EA040004D004F027
:101520004041090002D006E0039898E0A40044EA94
:101530009574AD00B61E04F00041080002D16D198B
:101540006441761E159810F0240F03D04FF00B095C
:101550005C4803E04FF028096FF07D008246564555
:1015600007DAAAEB06018944B9F1410F01DD4FF01A
:10157000410901200021A9F1010200F049F90246C8
:1015800028400B462140084301D0012100E0002102
:10159000501E029143F1FF3128402140084301D001
:1015A000012000E000200299834651EA0B014FD050
:1015B000002108464FF00000039900F4400039B1C3
:1015C00000EB80004FF4400100EBD07001EA6000B6
:1015D0008015012802DD4FF0FF3000E013D0401CE1
:1015E00036D0029860B3BBF1000F0CD14A460120FF
:1015F000002100F00DF928402140084301D00120CE
:1016000000E00020E0B101204A46002100F000F98E
:10161000034640190A4661412D1A8C4111D3B9F194
:10162000400F09DD159810F0240F02D0AAF13406FE
:1016300003E0AAF1170600E0761C00254FF00044F5
:1016400006E05B1E42F1FF3220EA030521EA0204B4
:10165000CAF10100B04206DA1B4903980843019021
:10166000002000900EE0039AC4F3D321E80A0A4355
:10167000164940EA44500A433146CDE90002684623
:101680000DF066F9159810F0240F0BD01598C007CF
:1016900015D13868DDE90012031D3B600068C0E920
:1016A00000120CE002A869460DF006F91598C00773
:1016B00005D13868029A011D396000680260404611
:1016C000F0E6000002FCFFFF0000F07F0000F03FAA
:1016D0002DE9FF4F92461D4685B04FF00041DDE9F0
:1016E000124BDDE914727F1E01EA4B50414940F074
:1016F000FF4940EA0108002122F020004928049116
:1017000002D04E2828D04CE03BA0012607C88DE827
:101710000700A9690698641C88477F1E014606D405
:101720001DF8060018B121F0200181420BD0E969B3
:1017300006988847032E34D0082E32D06FF001006F
:1017400009B0BDE8F08F761C032E01D0082EE0D141
:10175000601CCAF80000DCE7A9690698641C884789
:101760007F1E2AD420F02000412826D1A96906989E
:10177000641C88477F1E20D420F020004E281CD1F6
:10178000A9690698641C88477F1E48F4002849F41C
:101790008009CAF8004001D4282806D0E9690698D3
:1017A00088475FEACB7012D022E0A9690698641CD2
:1017B00088477F1E01D4002803DAE9690698884724
:1017C000BCE72928F1D1641CCAF80040E9E71BF006
:1017D000240F07D028680499031D2B600068C0E916
:1017E000001805E02868021D2A600068C0F8009013
:1017F0002046A5E70000F07F494E46494E4954591E
:101800000000000001491820ABBEFEE726000200E0
:10181000B2F120030AD5C2F1200301FA02F120FA45
:1018200003F300FA02F041EA0301704700FA03F102
:101830004FF0000070475FEA400C08BF91F0000FC6
:101840004FEA8C234FEAC12243EA51514FEA1C5020
:1018500018BF00F5F0404FEA300018BF41F00041DA
:101860005FEA6C5C00F02980BCF1FF3F08BF40F0EC
:1018700080407047130C06BF12044FF0100C4FF05D
:10188000000C130E04BF12020CF1080C130F04BF5E
:1018900012010CF1040C930F04BF92000CF1020C26
:1018A000D30F04BF52000CF1010C11464FF000029F
:1018B000A0F11F00A0EB0C00704711F0004F08BF13
:1018C000704731F000413FF4D5AF0B0C06BF09045F
:1018D0004FF0100C4FF0000C0B0E04BF09020CF17E
:1018E000080C0B0F04BF09010CF1040C8B0F04BF93
:1018F00089000CF1020CCB0F04BF49000CF1010C64
:10190000CCF12003A0EB0C0022FA03F302FA0CF254
:1019100041EA030100F10100704720F07F4C80EAAA
:10192000030023F07F47ACEB070303F57C5300F083
:10193000004003F1FF032DE980494FEA154B09B43C
:101940004FEA144325EA0B4E24EA03480FF204261B
:1019500006EB132749083E785FEA320203FB06676D
:10196000C7F5000707FB06F64FEA54374FEAD6469D
:1019700006F1020607FB066CCCF1005C4FEA1C473F
:101980002CEA074C07FB06F40CFB06F504EB1546A6
:101990004FEA961634BF00204FF000404FEAD1378F
:1019A00006FB07FC4FEA1C4C0CFB0BF7D21B03FB9E
:1019B0000CF761EB07010CFB0EF7B0EB074072EB85
:1019C00017420CFB08F734BFA2EB0742B2EB074209
:1019D00061EB17414FEA0C444FEA910706FB07FC05
:1019E0004FEA1C4C0CFB0BF7B0EBC74072EB5732C5
:1019F00003FB0CF734BFA2EBC742B2EBC74261EB6B
:101A000057310CFB0EF7B0EBC70072EB57720CFBB3
:101A100008F734BFA2EBC702B2EBC70261EB577104
:101A2000039F4FEA816141EA921104EBCC044FEA33
:101A3000D1374FEA826206FB07FC42EA90124FEA76
:101A400080604FEA1C4C0CFB0BF7D21B03FB0CF71E
:101A500061EB07010CFB0EF7B0EB074072EB17428E
:101A60000CFB08F734BFA2EB0742B2EB074261EB75
:101A700017414FEA8C554FEA910704EB9C2406FB73
:101A800007FC4FEA1C4C0CFB0BF7B0EBC74072EBAA
:101A9000573203FB0CF734BFA2EBC742B2EBC7428D
:101AA00061EB57310CFB0EF7B0EBC70072EB5772CE
:101AB0000CFB08F734BFA2EBC702B2EBC70261EB25
:101AC000577115EB4C254FEA816141EA92114FEABB
:101AD00082624FEAD13742EA901206FB07FC44F1DA
:101AE00000044FEA80604FEA1C4C0CFB0BF7D21B42
:101AF00003FB0CF761EB07010CFB0EF7B0EB0740A3
:101B000072EB17420CFB08F734BFA2EB0742B2EBB3
:101B1000074261EB174115EB1C154FEA813141EA91
:101B200092414FEA823242EA90424FEA80304FEAD5
:101B30000C7644F1000448EA03434EEA0B484FF0A8
:101B4000000EB2EB080C71EB030724BF6246394666
:101B50004EEB0E0E4FF0000B0018524149414BEB7B
:101B60000B0BB2EB080C71EB03077BF1000B24BFEE
:101B7000624639464EEB0E0E4FF0000B00185241F4
:101B800049414BEB0B0BB2EB080C71EB03077BF1FC
:101B9000000B24BF624639464EEB0E0E51EA020797
:101BA00018BF46F0010616EB0E7655F1000254F10F
:101BB000000103D5BDE88901BDE80088BDE88901C1
:101BC000BDE80048B619524141EB0101A3F1010300
:101BD000704780807F7E7D7C7B7A7978777676759A
:101BE0007473727171706F6E6E6D6C6C6B6A6A6912
:101BF0006868676666656464636362616160605FAC
:101C00005F5E5E5D5D5C5C5B5B5A5A595958585724
:101C1000575656555555545453535252525151508C
:101C200050504F4F4F4E4E4D4D4D4C4C4C4B4B4BDF
:101C30004A4A4A4949494848484747474746464625
:101C40004545454444444443434343424242424160
:101C50004141000046EA0646A3F570534FEA164696
:101C600046EA42564FEAD22242EA415210B54FEAC2
:101C7000D121A3F1010300F017F820F0004000F19A
:101C8000010C00F0004701EB00501146BCF5006F5D
:101C900040EA070000D210BD02484FF0000140EAC0
:101CA000070010BD0000F07F002B26D4770021D064
:101CB0001CB54FEA370703B44FF010004FF0100186
:101CC0004FF000000FBCBDE810400BF1010BBBF161
:101CD000010F08BF5FEA170722BF12F1010211F1DD
:101CE00001014FF0004143F1000300F0004043EADE
:101CF00000007047F9D35708DAE746EA064613F1C1
:101D0000400F4FEA16461FDD13F1200FDFBF1643C9
:101D10000A46002120335B42C8D0C3F1200746EABF
:101D2000064602FA07F74FEA164646EA0706C3F1E7
:101D3000200722FA03F201FA07F721FA03F14FF024
:101D4000000342EA0702B1E746EA020646EA06460F
:101D50004FEA164646EA0106BCBF46EA0646360C7E
:101D60004FF000034FF000024FF000019EE72DE915
:101D7000C048934630B491E8380007C831EA400CB7
:101D800048BF34EA430C03D5FFF7C7FDFFF78CFFCC
:101D9000F0BCBDE800882DE9C048934630B491E816
:101DA000380007C831EA400C48BF34EA430C03D579
:101DB000FFF7B3FDFFF74EFFF0BCBDE800882DE94B
:101DC000C048934630B491E8380007C810F0804FFF
:101DD00008BF13F0804F03D100F019F8FFF764FF3C
:101DE000F0BCBDE800882DE9C048934630B491E8C6
:101DF000380007C810F0804F08BF13F0804F03D1A0
:101E000000F005F8FFF726FFF0BCBDE8008820F0E1
:101E10007F4780EA030023F07F4C07EB0C03A3F518
:101E20007C5300F00040A3F1FE0392F0000F00F09D
:101E3000B38095F0000F00F077802DE901494FEA5B
:101E400011404FEA144621EA004800FB06FC24EA50
:101E5000064708FB06F607FB08F800FB07F718EB38
:101E600006484CEB164C4FEA124B18EB07484FEA6A
:101E700015464CEB174022EA0B4E0BFB06FC25EAFD
:101E800006470EFB06F607FB0EFE0BFB07F71EEBE5
:101E9000064E4CEB164C4FF000061EEB074E4CEB7B
:101EA000174B18EB0B0840F1000018EB0E0B58EB2A
:101EB000000840F100008F1A4FF000013CBFC943F9
:101EC000661B14BFB5EB040C00213CBFC943F61BD5
:101ED0004FEA17444EEA8E0E27EA04454FEA1C47A4
:101EE00004FB07622CEA074C05FB07F70CFB05F621
:101EF00004FB0CFC16EB074642EB174216EB0C46B4
:101F000042EB1C421BEB060658EB0202414146EA3B
:101F10009E0601D5BDE80189B619524141EB010188
:101F2000A3F10103BDE801894FEA14454FEA1147C7
:101F300024EA054621EA074C05FB07F406FB07F7F0
:101F40000CFB06F105FB0CFC11EB074144EB1744BD
:101F50004FEA124711EB0C4144EB1C4422EA074CB8
:101F600005FB07F206FB07F70CFB06F605FB0CFC6E
:101F700016EB074642EB174216EB0C4642EB1C45AC
:101F80006A1854F1000148BF7047B619524141EB3D
:101F90000101A3F10103704795F0000F37D04FEA1C
:101FA00011424FEA144721EA024624EA074C02FB99
:101FB00007F106FB07F70CFB06F402FB0CFC14EB25
:101FC000074441EB17414FEA154714EB0C4441EB32
:101FD0001C4125EA074C02FB07F506FB07F70CFB43
:101FE00006F602FB0CFC16EB074645EB174516EB15
:101FF0000C4645EB1C42121951F1000148BF7047D5
:10200000B619524141EB0101A3F1010370474FEAB8
:1020100014454FEA114724EA054621EA074C05FB1F
:1020200007F106FB07F70CFB06F24FF0000605FB75
:102030000CFC12EB074241EB174112EB0C4251EB47
:102040001C4148BF7047921841EB0101A3F1010305
:1020500070470000B0B2B1B8B1C8B1E0B2E2B3F6B7
:10206000B5E7B6A8B6EEB7ADB7BDB7C5B7D6B9AB8D
:10207000B9A6B9E6B9FDBAC5BAE3BBFABBFDBCD394
:10208000BCE4BDBBBDE1BEC3BED8BFAABFD5C0FDC9
:10209000C1F7C2CAC4CDC6B5C6FAC6F7C8B7C8CF5D
:1020A000C8EBC9CFC9E8CAB1CABCCABDCAD4CAE460
:1020B000CAF8CBBECBD9CDA3CEA2CFB6CFC2CFDE8E
:1020C000D0A1D0D0D0CDD0EDD1A1D1B9D1E9D3D04C
:1020D000D4B4D4CAD4CBD4D8D4DDD4F1D6B1D6B507
:1020E000D7AAD7DCB2CECAFDD2C6D0D4D7B4CCAC36
:1020F000BCC6C6ABC1BFD0A3D7BCCFB5CDB3D4F699
:10210000D2E6C2FABFCCC1E3B5E3B1A3B4E6B3CC27
:10211000B7B5BBD8C7EBD2C7B1EDD0AABBBBD2B362
:10212000CFEEB8BAB6AFB1A8BEAFC3EBB1B6B4CEBE
:10213000B5CDB8DFC4DAB2BFBFD8D6C6B4EDCEF3E2
:10214000CDCBBCCCD0F8D7EEB4F3BCB4BFBCD6DC9E
:10215000C6DAB5F7D5FBD1ADBBB7B5B1C7B0CEBB0D
:10216000D6C3C3DCC2EBB9E2D5A4B3DDC6FBB3B5BD
:10217000D3EFD1D4D6D0CEC4D6D6C0E0B9A4D2D570
:10218000D0B5CCD8D7A8B3C9B4ABD6D8D0C2C6F4D2
:10219000BDF8B4F8B2E5CCF5BCFED6B9C9FDBCECCF
:1021A000B2E9B9D8B3A7B3A4B2BDB1EAB8B4BEF826
:1021B000D4B5B6C2CDEAB2BBBACFB8F1C8B1CAA1E4
:1021C000D5FDB7B4BEB2C1ACBDD3D0C5B5BDCFDFB0
:1021D000B6C8CFE0B3D6BEDFB6CED7F3D3D2CFF2F8
:1021E000C2B7B3ACD7F7BBD6D3C3B5A5C8FDD7A28A
:1021F000D2E2CAD6BEDDB4C5BDB5CEC8BDC7CCE13E
:10220000BFECBAA3D1D3B7E1CAB5D2B5C0B8BDB59A
:10221000D7D4CDACBDD7C3BFC6F0B0DAB7F9D5B906
:10222000CBB3C4E6D5EBD2D7C8BCCBB2D0A7D2B61D
:10223000C6ACBCABB6D4D0FDC6FBD3CDD6D5C0F8AA
:10224000D3EAB9CED2A1B4B0B9FAEDC0C2EBC5CCD5
:10225000C0EBD6F7B4D3C8C8B1A3BBA4CDE2BCA42D
:10226000BDD8B7C7D2ECCFD4CABECBF8CBAECEC2A6
:10227000C7E5B3FDB5C8B4FDC6C1B4B5B7E7B1D5C0
:10228000C4A3C8ABD5BCCAA7C5D0B6B6CEFCCACD10
:10229000D5E6B3BEBFD7B0E5C4DCD4A4B3A3C9D5DB
:1022A000CCECBAF3B5B2A1E3BBF4B6FBCBC5B7FE39
:1022B000BCD0C1A6A1F0A1F1B7C0C8DDC6F8B7A7D0
:1022C000C8A6BFE9B1E4A1FCA1FDA1FAD5DAD1F419
:1022D000C1B1B2A3C1A7BCFCC6D5CDA8D7B0D6B8F2
:1022E000C1EECFECD3A6B0DC00000000000000007F
:1022F000000000000000000000000000007E81A53A
:102300008181BD9981817E0000000000007EFFDB9D
:10231000FFFFC3E7FFFF7E00000000000000006C2D
:10232000FEFEFEFE7C3810000000000000000010E1
:10233000387CFE7C38100000000000000000183CD3
:102340003CE7E7E718183C00000000000000183CDC
:102350007EFFFF7E18183C00000000000000000017
:1023600000183C3C180000000000FFFFFFFFFFFFCB
:10237000FFE7C3C3E7FFFFFFFFFF0000000000000F
:102380003C664242663C00000000FFFFFFFFFFFF8B
:10239000C399BDBD99C3FFFFFFFF0000001E0E1AC9
:1023A0003278CCCCCCCC780000000000003C6666D3
:1023B00066663C187E18180000000000003F333F9E
:1023C0003030303070F0E00000000000007F637FAC
:1023D0006363636367E7E6C000000000000018184D
:1023E000DB3CE73CDB1818000000000080C0E0F098
:1023F000F8FEF8F0E0C080000000000002060E1EAB
:102400003EFE3E1E0E0602000000000000183C7E4C
:102410001818187E3C180000000000000066666670
:10242000666666660066660000000000007FDBDB13
:10243000DB7B1B1B1B1B1B00000000007CC66038E5
:102440006CC6C66C380CC67C0000000000000000A2
:10245000000000FEFEFEFE000000000000183C7EB2
:102460001818187E3C187E000000000000183C7E02
:10247000181818181818180000000000001818186C
:10248000181818187E3C180000000000000000001A
:10249000180CFE0C180000000000000000000000F6
:1024A0003060FE603000000000000000000000000E
:1024B00000C0C0C0FE0000000000000000000000DE
:1024C000286CFE6C280000000000000000000010D6
:1024D00038387C7CFEFE000000000000000000FE9A
:1024E000FE7C7C3838100000000000000000000076
:1024F00000000000000000000000000000183C3C4C
:102500003C181818001818000000000066666624C1
:1025100000000000000000000000000000006C6CE3
:10252000FE6C6C6CFE6C6C0000000018187CC6C25F
:10253000C07C060686C67C1818000000000000C299
:10254000C60C183060C686000000000000386C6CB5
:102550003876DCCCCCCC7600000000003030306027
:10256000000000000000000000000000000C183017
:102570003030303030180C00000000000030180CF3
:102580000C0C0C0C0C1830000000000000000000C7
:10259000663CFF3C660000000000000000000000F8
:1025A00018187E181800000000000000000000004D
:1025B00000000000181818300000000000000000A3
:1025C0000000FE000000000000000000000000000D
:1025D00000000000001818000000000000000002C9
:1025E000060C183060C080000000000000386CC687
:1025F000C6D6D6C6C66C3800000000000018387871
:102600001818181818187E0000000000007CC60674
:102610000C183060C0C6FE0000000000007CC6063A
:10262000063C060606C67C0000000000000C1C3CB0
:102630006CCCCCFE0C0C1E000000000000FEC0C0E4
:10264000C0FC060606C67C0000000000003860C022
:10265000C0FCC6C6C6C67C000000000000FEC60660
:10266000060C18303030300000000000007CC6C678
:10267000C67CC6C6C6C67C0000000000007CC6C67C
:10268000C67E0606060C7800000000000000001858
:1026900018000000181800000000000000000018DA
:1026A0001800000018183000000000000000060CA0
:1026B00018306030180C0600000000000000000018
:1026C0007E00007E0000000000000000000060307E
:1026D000180C060C1830600000000000007CC6C614
:1026E0000C181818001818000000000000007CC624
:1026F000C6DEDEDEDCC07C00000000000010386CAE
:10270000C6C6FEC6C6C6C6000000000000FC66665F
:10271000667C66666666FC0000000000003C66C2DF
:10272000C0C0C0C0C2663C000000000000F86C667B
:1027300066666666666CF8000000000000FE666271
:10274000687868606266FE000000000000FE666255
:10275000687868606060F00000000000003C66C2BD
:10276000C0C0DEC6C6663A000000000000C6C6C68D
:10277000C6FEC6C6C6C6C60000000000003C18184B
:102780001818181818183C0000000000001E0C0C47
:102790000C0C0CCCCCCC78000000000000E6666687
:1027A0006C78786C6666E6000000000000F06060FF
:1027B000606060606266FE000000000000C6EEFE21
:1027C000FED6C6C6C6C6C6000000000000C6E6F6B5
:1027D000FEDECEC6C6C6C60000000000007CC6C62F
:1027E000C6C6C6C6C6C67C000000000000FC666601
:1027F000667C60606060F00000000000007CC6C67F
:10280000C6C6C6C6D6DE7C0C0E00000000FC66669E
:10281000667C6C666666E60000000000007CC6C64A
:1028200060380C06C6C67C0000000000007E7E5AA0
:102830001818181818183C000000000000C6C6C67A
:10284000C6C6C6C6C6C67C000000000000C6C6C616
:10285000C6C6C6C66C3810000000000000C6C6C65A
:10286000C6D6D6D6FEEE6C000000000000C6C66CD0
:102870007C38387C6CC6C6000000000000666666C6
:10288000663C181818183C000000000000FEC686C0
:102890000C183060C2C6FE0000000000003C303062
:1028A0003030303030303C0000000000000080C08C
:1028B000E070381C0E06020000000000003C0C0C0A
:1028C0000C0C0C0C0C0C3C0000000010386CC6000A
:1028D00000000000000000000000000000000000F8
:1028E0000000000000000000FF0000303018000071
:1028F00000000000000000000000000000000000D8
:10290000780C7CCCCCCC76000000000000E060604D
:10291000786C666666667C000000000000000000BF
:102920007CC6C0C0C0C67C0000000000001C0C0CAF
:102930003C6CCCCCCCCC7600000000000000000049
:102940007CC6FEC0C0C67C000000000000386C647D
:1029500060F060606060F0000000000000000000B7
:1029600076CCCCCCCCCC7C0CCC78000000E0606089
:102970006C7666666666E6000000000000181800C7
:102980003818181818183C0000000000000606004F
:102990000E06060606060666663C000000E060605D
:1029A000666C78786C66E600000000000038181845
:1029B0001818181818183C0000000000000000004B
:1029C000ECFED6D6D6D6C6000000000000000000FF
:1029D000DC666666666666000000000000000000B7
:1029E0007CC6C6C6C6C67C00000000000000000011
:1029F000DC66666666667C6060F0000000000000D1
:102A000076CCCCCCCCCC7C0C0C1E000000000000A2
:102A1000DC7666606060F0000000000000000000EE
:102A20007CC660380CC67C0000000000001030300E
:102A3000FC30303030361C00000000000000000088
:102A4000CCCCCCCCCCCC7600000000000000000048
:102A500066666666663C1800000000000000000024
:102A6000C6C6D6D6D6FE6C000000000000000000EE
:102A7000C66C3838386CC60000000000000000004A
:102A8000C6C6C6C6C6C67E060CF80000000000001A
:102A9000FECC183060C6FE0000000000000E1818C2
:102AA0001870181818180E000000000000181818E8
:102AB00018001818181818000000000000701818E6
:102AC000180E181818187000000000000076DC00BE
:102AD000000000000000000000000018242418007E
:102AE00000000000000000000000000000000010D6
:102AF000386CC6C6C6FE00000000020001003FFCA4
:102B00002004420802000204FFFE042008201840AE
:102B10000640018002400C303010042007F00820ED
:102B20001440238002800C603018DFF61110111061
:102B30001FF0111011101FF0101000802080208055
:102B40002080208824983EA020C0208020802080E3
:102B5000208226823882607E00001080104823FC8C
:102B600022084A08FBF81200220043FCF6944A941B
:102B700003FC1A94E2944294020C0004400437C40B
:102B800014548554655425540D54155415546554E6
:102B90002104228424442854200801000100210833
:102BA0002108210821083FF82108010041044104BF
:102BB0004104410441047FFC400402000200020081
:102BC00002107FF8421042107FF0421042107FF056
:102BD000421002040204020401FC020001047FFE10
:102BE0004004800800203FF001000100112011F096
:102BF00011001100290047FE8000100408FE7F101C
:102C00004120907C1E44225454540854145422549D
:102C10007F54A21022283E4620820E04F1DE544446
:102C20003844FE44115454CC92447C4454CC555402
:102C30007C44544454447D544488040003000100FF
:102C40000004FFFE0400041007F804100410041030
:102C500008100810101020A04040204010401040E4
:102C60000084FFFE200824883E882450245024201D
:102C7000245044505488890E02040080048004408B
:102C800008400820101020085FEE8424042004204F
:102C900004200820082011402080008000C004800B
:102CA0000440084008201110210EC2040200040054
:102CB000084010203FF010100000008000800880C5
:102CC000FC80108417FE10841084108410841D046E
:102CD000F10441040244042808101000100811FCFB
:102CE00011087D4811481148FF48114811481060EB
:102CF00028A024A041228222041E0010401020108F
:102D000017FC00100010F11010901090101010100F
:102D100010501020280047FE000000101FF810106F
:102D2000101010101FF00004FFFE040008001FF038
:102D300000100010001000A00040100817FC100048
:102D400010085BFC5608520893F81208120813F892
:102D5000100010041FFE100010001000101011F8D9
:102D60001110FD1011103110391055105110911023
:102D7000111011121212140E180004000E0478FE25
:102D800008840884FE84088418841CFC2A84280093
:102D9000488888C409060A020800100010001004C0
:102DA000127EFF441244124412441244124412444C
:102DB000224422444A7C8444000020041BFE080470
:102DC0004004404447E44444444447C444444444E5
:102DD000444447C444444014400802000100010434
:102DE000FFFE08200810100C282444400280010037
:102DF000028004400830300EC0040820082010244F
:102E000023FE4420782009FC100020007DFC0104F2
:102E100001040D04710421FC01040400044007E0D6
:102E200008400840108020800080014001400220BE
:102E300004200810300EC0040000200821FC2100EE
:102E40003F00510891FC1108FF081108110811F802
:102E500029082500450481FE000000087FFC0820A9
:102E60000820082008200824FFFE08200820082049
:102E700008201020102020204020020001007FFEAA
:102E8000400284440C301018200800003FF8010074
:102E9000010001000104FFFE0000100410441FE4C3
:102EA0002204221467D4A454285434942294211464
:102EB000220424042804201420080080404437FE03
:102EC0001040809061082BFC0804124812486248A8
:102ED00022482248224A244A2846020001087FFC50
:102EE000010042442788111022484FE405200104C4
:102EF000FFFE01000100010001000108FF88080831
:102F0000080810FE7F0855085548552855285508CB
:102F100055085508550843280010100413FE50208A
:102F20005C4051FC5104FF241124512455245524A4
:102F3000892408201050208C4304020001087FFCE3
:102F40000200044008201FF004500444FFFE044027
:102F5000044004400840304000403EF82288228867
:102F600022883EF801200110FFFE02800C6030181C
:102F7000FEFE2288228822883EF800400440FE7827
:102F80001090112023FC25247D24A5FC2524252434
:102F900025FC25243D242224040C004040403040E0
:102FA000104000400040F0A010A010A0111011101F
:102FB00015101A0812080406080404000200010093
:102FC00001000100028002800280044004400820C9
:102FD000082010102010400E8004010001000100A4
:102FE0000100011001F801000100010001000100D1
:102FF000010001000104FFFE000001F0211011108A
:1030000011100110020EF40013F8110811101090A5
:1030100010A0144018B0130E0C04000804087E0819
:10302000440847FE440844087C884448444844080F
:1030300044087C084448002800101040104010400C
:103040001080FC88250427FE2402240049FC290462
:1030500011042904450485FC0104008000A00090AF
:103060000084FFFE008000803E8008800840084009
:1030700008200F227012200A00040020402820247B
:1030800020200FFE0020E02027E021202120212009
:10309000211029D2370A220A0004204020A020A0B3
:1030A000FD10220E45F4500093C4FA5413D43A5440
:1030B000D3D412541244124412CC01000104FFFE76
:1030C000010001083FFC2108210821083FF823885E
:1030D00005400930310EC104010000083FFC000822
:1030E0000048FFE8000800883FC820882088208822
:1030F00020883F882088002800100040404437FE88
:103100001040004003F8F248124813F8104010E055
:1031100011581248284047FE00001080104817FC44
:10312000200023F86208A3F820002FFE280233F4C1
:1031300020402040204021402080121012102A9070
:103140004AA08ABE1FC420247FA8A0282F282910A7
:10315000295029A8292830462084004079504B4C1A
:103160005444504063F852084BF84A084BF8684002
:103170005150424C4444414040800004FFFE020054
:10318000020002000280024002300210020002002F
:103190000200020002000200020000087DFC450857
:1031A000490849F85108490849F8450445884550F7
:1031B00069205110414E418441000100010001008D
:1031C000010001000100092019102108410C8104AF
:1031D0000100010001000500020008080BFC1000BE
:1031E00020004000080417FE3010501090101010FE
:1031F0001010101010101050102000047F841224A2
:1032000012241224FFA412241224120423144108AD
:103210007FFC01000104FFFE00000200420833FCB5
:10322000124004400040F04417FE1040104010408F
:1032300012401440184010400040004042403248C4
:1032400013FC02400444F7FE10A010A010A01120AF
:10325000112212222C1E440003FE00083FFC208095
:1032600020802080208020882FFC208020A0209893
:103270002088408040849FFE00000840FC4008A059
:1032800048A049104A0E4DF448007C88064805487D
:103290001D50E510442417FE080002000204FFFE42
:1032A000040004100FF8081018102FF048108810B0
:1032B0000FF00810081008500820000447FE3440A2
:1032C000148085FC650425FC0D0415FC2524E420F0
:1032D00024A829A62A2230A020400200020004408F
:1032E000082010103FF814880488048004800880A7
:1032F000088010821082207EC000001043F8300049
:103300001000000807FCF08010801100112012103E
:1033100017F81008280047FE0000084008507F48B2
:1033200008480840FFFE1040FF40204828487E30F3
:1033300008200F60F892090A0A06100C7EF010802F
:1033400028847EFE0890FE9009100A101FF01020BD
:1033500010201FE0102010201FE0100013F81110A3
:1033600010A0FC4010A015101A4E35F4D0401048A3
:1033700017FC1040104050402040010001087FFC25
:10338000010001001FF010101FF010101FF01010AE
:103390001FF010101010FFFE0000084008440FFE40
:1033A0001040104033F8520893F8120813F812082E
:1033B00013F8120812081FFE1000104010401048A9
:1033C000FDFC204028444BFE7C80088809FC1C083A
:1033D000E8104890086008200810101008300440D9
:1033E00004801FF01010101010101FF010100200B9
:1033F00051845082901210100FF0020002400420FD
:103400001FF00204FFFE044008A013102C4EC184DC
:103410000E10006001800E007000084049402A40F4
:103420000884FFFE19082C884A881088FE902250D4
:10343000222014501888250E420408401C40F0FC3D
:1034400011841248FC30106039A0343E544290C4BC
:1034500011241018103010C01700104010401240F6
:1034600012485BFC564054409440184013F81040FA
:103470001040104010441FFE10000840085008483B
:10348000484028442FFE0840084018A028A048A023
:10349000C91009100A0E0C04080001000104FFFE07
:1034A0000100028004400A30310EC00402002910DD
:1034B00029082824482407E000000040204010404C
:1034C000104000400044F7FE1040104010401040F3
:1034D000124014401840104000401080104417FE65
:1034E0002404240467FCA400240427FE26942A94C0
:1034F0002BFC2A9432942294220C00101FF81010F6
:103500001FF01010FFFE00001FF011101FF011102F
:103510001FF001001FF001007FFC1040102010047C
:1035200013FEFC00108831063A8A5488505090509F
:10353000102010501088130E1C040140412031242B
:1035400013FE022016201BFC12202220E3FC222066
:103550002220222423FE2200020000387FC0020025
:10356000042008403F800100062018103FF8110891
:103570000100111021084508020010801040204869
:1035800027FC4880F910120827FC4124F92041202B
:1035900001201A22E222441E080020002218219055
:1035A00020A027FCFC442554244427FC20003BF8A1
:1035B000E20843F8020803F8020808200440000863
:1035C0007FFC000004400830101000003FF8244841
:1035D000244824482448FFFE0000412031241FFED7
:1035E000012080006FFC212001201FFC2924E924F8
:1035F0002AD42C0C28042814280808040404048461
:10360000FFC4042408A410A43F24122404A41924F1
:10361000622406041984E09400081FF001007FFE74
:1036200041029D7401001D7002800C603218C106B9
:103630000FE000400280010000800200020002084A
:1036400003FC020002103FF82010201020103FF071
:103650000000291024C84444800408080BFC0A0810
:103660001208120833F8324050449FFE104010E018
:1036700011501248144E1844104002000204FFFE7C
:10368000040008000BF81010102030445FFE90403A
:103690001040104010401140108008041DFEF1043D
:1036A00011041104FDFC1104380035FC5420502095
:1036B00091FC1020102017FE10000008401C33E081
:1036C0001200020002F8F20812901250122012505A
:1036D000148C15042800440003FE000000047FFE43
:1036E0004004400447C4444444444444444447C41C
:1036F000444440047FFC400400000040404827FC54
:10370000204003F8E0402FFE200023F8220823F891
:1037100022082BF8320822280210080008800864CA
:1037200012241204320851089110109010A0104079
:1037300010A011101208140E1804010001087FFCDB
:10374000010001103FF801000104FFFE031004A076
:103750000C403430C48E0504060000203F20212098
:103760003F3E21423F94101011103F904910C91064
:10377000552863287D24054402821080108011F0B2
:103780001220FC4013F812481E483248D2481FFE4F
:10379000104010A01110520E2C040004FFFE020075
:1037A00004101FF810101110111011101110111029
:1037B00011101290046008183008000403FEFC2069
:1037C000104011FC110411241124112411241D2472
:1037D000F1244124005800840302040004400FE057
:1037E000104020805FF010101110111011101110F6
:1037F000111002C0043018186008004000407C40DE
:10380000004401FEFE4410441044204424444284F9
:10381000FE844284010402280410100811FC1108DF
:103820001108FD281110150019F83108D190115018
:1038300011201150118E5104210014407F7C10C8BA
:103840003F2855101D2801460680FFFE0900048010
:1038500002401FF0101010101FF004200E207820DE
:10386000082008A8FEA608A21D201A24282428281B
:1038700048108820084008800B00088008400FFC92
:1038800010001218311051209FFE1000100813FC78
:1038900012081208120813F81208008040803080C5
:1038A000110401FE0A0412482440E040204020A0F8
:1038B00020A021102108220E24041008103C17C05B
:1038C000244024406440A44427FE242024202420B3
:1038D00024102512264A2C2A240602000104FFFE89
:1038E00000001FF0101010101FF000007FFC4004BB
:1038F0004FE4482448244FE4400C0100010001003B
:1039000001047FFE4104410442044284446448347B
:10391000501440044004401440081000087C024445
:103920007F44004822481450FFC800443E422242CF
:10393000226222543E482240004020802040204005
:1039400027FEF4022924221034086000A3F8204046
:10395000204020402044AFFE4000040424042404FE
:103960003FA424244424FFE4042404243FA424A4E6
:1039700024842684250404140408109010901090C8
:103980001DFC209020907BFE900011F87D0811080E
:1039900011F81508190811F80108000843FC32084D
:1039A000120803F80000E00827FC204020442FFE06
:1039B00020A028A03110220E040403F84208320887
:1039C00013F802080208F3FC120812D01220129019
:1039D000130C12042800440003FE102012202220A1
:1039E00023244AACFA70122023FC4220FA7042AC25
:1039F00003241A20E22443FE00001040104023F864
:103A000020404840FBFC112420A84220F92407FE56
:103A100000401C60E090410C02041FF010101FF0E9
:103A200010101FF00000FFFE22003FF822883E9099
:103A300022503E20E250028E0304010001000100EA
:103A400001000104FFFE01000280028002400440E8
:103A500004200810100E6004000000007E0442FEE6
:103A600042847E84428442847E84408444A444947C
:103A70004A887280408000800080020002103FE08F
:103A800002400284FFFE020004000FF8120027F03B
:103A9000401080100220012000C000083FFC2108D7
:103AA00021082FE8210821083FF8200827C82448CA
:103AB000244827C84408802800102204227E22447B
:103AC0007F4422443E7C22443E442244227CFFC464
:103AD00000442444228441148208400427FE2444E4
:103AE000044405F4E444244427FC240425F4251468
:103AF0002D1435F42404081410080840FFC0087E73
:103B00007F4849C87F2818102C284A463FF80100F2
:103B100009F009000904FFFE0000101C17E0242032
:103B2000242447FE942025FC6504A50425FC2504D7
:103B3000250429FC2904310421FC0000FC0417FEA3
:103B4000102010201040F8C01150124C14461042A2
:103B50001C40F0404040004000400100210819187E
:103B60000920010001087FFC0008000800083FF858
:103B70000008000800087FF8000810100C3004440A
:103B8000FFFE00003E08224822483E4822482248C4
:103B90003E48220822082A282410088008400840AD
:103BA000100817FC300052089208111011101090E4
:103BB00010A010241FFE100010003FF824483FF80A
:103BC00001007FFC01001FF010101FF010101FF00B
:103BD00010101FF01014FFFE0000020001007FFE15
:103BE0004202892428C84B040C1077F001002108F8
:103BF0002108210821083FF8200800107DF8101046
:103C00001110111021103D106510A5FC240424246E
:103C100027F424043C042414000801002108110C9A
:103C2000091009200104FFFE044004400440044040
:103C3000084008421042203E4000200027BC24A437
:103C400024A4FCA424A474A46FFEA4A424A424A4E7
:103C500024A424A429A4305420880100111011F8B0
:103C6000110011001104FFFE000021082108228824
:103C70002468282820083FF820080200420833FC66
:103C8000140087F8680027F0001010102010E010D2
:103C900020102010200A200A2006020002087FFCC3
:103CA00004000900110021103FF801000104FFFE8B
:103CB0000100010001000100010000084FFC21008B
:103CC000210007F00210E21022103FFE200027F82A
:103CD00024082C08340827F8040802000104FFFE19
:103CE000000000103FF8000000103FF80000001036
:103CF0001FF8101010101FF0101001000100010437
:103D00007FFE41044104410441047FFC4104010061
:103D10000100010001000100010002000100010496
:103D2000FFFE10100810082004200440028001004B
:103D3000028004600810300EC00408201C20F0200F
:103D4000102411FEFF2411243924352455FC51245C
:103D500090201020102010201020010011100920A8
:103D600001087FFC01000540093011100100FFFE31
:103D7000028004400820101C6008000000087FFC3E
:103D8000010001000100010001000100010001002B
:103D900001000104FFFE0000000004400444FFFE97
:103DA0000440044000003FC0008001000200040005
:103DB00008001000200220021FFE102010281024EE
:103DC00017FEFC2012A032A03AA457E452A892A8F1
:103DD000129014B01852108A130610401040504828
:103DE00053FC7C40504497FE18103010D7FE111041
:103DF00010901090101010501020010001000110C0
:103E00003FF802000204FFFE040004100FF8001047
:103E100000200040068001800040008000A000904B
:103E20003FFC2080208020843E44224822482230CB
:103E30002A2024624092810A000608400840084077
:103E400017FC104030445FFE9080110813FC1008EE
:103E5000111010A010401060102000383FC0010069
:103E6000FFFE01001FF011101FF011101FF00100E4
:103E70003FF801000104FFFE00001000080C7F70F5
:103E8000004022401440FF7E08487F4808480A4806
:103E900029484888888829081008010000841FFEE6
:103EA0001004100410041FFC10001000100417FE72
:103EB00024042404440487FC040402204220222019
:103EC0002FFC02200220E22022242FFE222022208A
:103ED0002220242050208FFE0000092009207FFC92
:103EE000092009207FFE410281041FF011101110EA
:103EF000111011101150012001001008103C17C0C2
:103F00001040F84417FE10401940365CD444144465
:103F1000175C1444144457FC240408000FF01820C4
:103F2000244043800C60301EC10401003FF80100B2
:103F3000092011182108050002001040104012400D
:103F4000224823FC6440A440284020443FFE2040F7
:103F5000204020402040204020400100010001007E
:103F600011001100111011F81100110011001100C1
:103F7000110011001104FFFE0000012007A07C20A9
:103F80000420042004200424FFFE04200420042034
:103F9000082008201020202000201040104010A0F1
:103FA00010A0FD10120835F630045800544891480E
:103FB00011501110100417FE100001000104FFFE43
:103FC000034005201918E1061FF010101FF0101013
:103FD0001FF010100004FFFE00001010081804204D
:103FE00004487FFC010001000104FFFE0100028083
:103FF000028004400830300EC004000000081FFC9E
:104000001000100010001000100010001000100030
:104010002000200040008000000008000810083048
:104020000840088009000804FFFE09000900088014
:104030000840082009180E060800010009000910B0
:1040400009F809000904FFFE010009100D181120EC
:10405000212000C003000C0070001000101013F8A5
:104060001000FC00100437FE384054405150914875
:104070001244144410401140108010081FFC20000E
:104080002FF048108FF008100FF004000FF00C20F4
:104090001240218043400C30300E10401040107808
:1040A00020904520FFFC092411242124FDFC41041B
:1040B00001001D00E102410200FE108010F82108FD
:1040C00023F04810FFFE108021884250FCE0016080
:1040D00002501CC8E14E464400C01040104411F884
:1040E0001048FC5013FE1040108811FC13081F08E4
:1040F000E5F84908110801F80108020001047FFEF3
:10410000400480481FE0000000087FFC0480048019
:104110000480088408841084607C0004FFFE008012
:10412000008001000100034005200918110C210442
:1041300041000100010001000100010001000280B6
:10414000044008203018CFE6000000200FF00820BF
:104150000820082008200FE008201100110011F8A5
:104160001208FF1014A0384034A05110520E97FCD2
:104170001A081208120813F81208204020402440A0
:104180003E4851FC90481048FE48104855FE5440A7
:1041900054A054A07D10460E04040100092009100B
:1041A000110C112420C003000C083FFCC8080FF8B4
:1041B00008080FF808080FF8080800087FFC01003D
:1041C000010001000100111011F81100110011008F
:1041D000110011001104FFFE0000001000783F8064
:1041E000200020003FF82408241022102220214023
:1041F000208041404230840E1804084008407EF878
:1042000009103E2008FCFF2400243FFE22243E2407
:1042100022FC3E24222022A02640008040882FFC41
:10422000210001400240E7F82040204020482FFCB8
:104230002040204050408FFE00001080104817FCA6
:104240001000FD1010A017FC18803084DFFE1090C5
:10425000111010A0106050982308088008440FFE29
:104260001000100833FC3000500893FC10001008B8
:1042700013FC12081208120813F801047F840804C2
:104280001024222441247FA408A4082408247F2485
:10429000082408040F84F814400808400850104807
:1042A0001040227C7FC00844107E23C07C48005010
:1042B00000201C60E092430A0006010000843FFEDB
:1042C000222022203FFC2220222023E020002FF861
:1042D0002410226041808660380E100411FE110403
:1042E0001104FD0411FC31043904550451FC9104FE
:1042F00011041104110411FC110410401040104865
:1043000013FCFC40104417FE18103010D7FE12109A
:104310001110111010105050202000200FF0082014
:1043200008200FE008200FE008200FE008200824F4
:10433000FFFE04400C2010182008060838FC2088D6
:10434000208820883E88208E21003E0821FC20887D
:104350003E88E050202020D82706020002000208F4
:10436000FFFC04000400040008100FF81080108007
:104370002080408080847FFE000002000200020452
:10438000FFFE04000400080008081FFC2808480875
:104390008808080808080FF8080802000400080444
:1043A0007FFE4004404447E444444444444444447D
:1043B00047C4444440044014400800407C4044FC4E
:1043C0004588465044207C50508813065C0450F8C1
:1043D000508850885C88E0F80088100813FC10882A
:1043E0007C88108810A8FD10120051F85D08510853
:1043F000510871F8580087FE0000090009000904FF
:1044000011FE12803280549098F81080108010882D
:1044100010FC10801080108010801080108010849C
:1044200017FE588055205120912412AC1270122092
:10443000142014501850108E130400083FFC21085B
:10444000210821083FF82108210821083FF8210808
:10445000210821084108412880101010082004403C
:104460003FF8210821083FF8210821083FF82100E2
:104470000104FFFE010001000100000000087FFCB4
:1044800000000000000000103FF8000000000000E5
:1044900000000004FFFE00000000008040403044A7
:1044A00017FE804060402040084817FC2040E04054
:1044B0002040204020442FFE200001003FF808202B
:1044C0000444FFFE00001FF010101FF010101FF03A
:1044D00002005184509290120FF0001000F87F00FB
:1044E000010001103FF8010001000104FFFE01007E
:1044F00001000100010005000200100413FE120477
:104500001204FFFC122016241BFE3220D22013FCC2
:1045100015041504150459FC210402080198F8A09B
:1045200027FE21084108425274A4D7BC5108510803
:10453000521054A477FE5042000000807C8045F861
:104540004A1048A0504049B04A4E444445F04540C6
:10455000694853FC40404040404008401C40F0F84F
:1045600011101220FBFC100439FC340453FC5040A1
:1045700095241522190A10F8100008000FE01040C9
:1045800020885FFC910811081FF8110811081FF816
:1045900011081108210841288010100811FC110889
:1045A0001108FDF81108150819F83000D7FE102081
:1045B0001120113C112052A0247E10801080108008
:1045C00010885BFC54885088908810881FFE1080EB
:1045D000114011201210140E1804020043FC320086
:1045E00014008BF8628822480A480FFE128812488D
:1045F000644827FC2008202820100008001C7DE0CB
:10460000042008201120213C7D2005200520492080
:1046100029FC1000280047FE80000100010001086D
:104620007FFC0100010001103FF8010001000104BE
:10463000FFFE0100010001000100020001047FFEF5
:1046400048048688028010800C800484FFFE0100EC
:10465000014002200410180C60040440044004408F
:104660000440444424442448144814501450146012
:10467000044004400444FFFE000012101118109082
:1046800010A0FC0417FE30003800540853FC9000C2
:1046900010001000100417FE100000807C8045F808
:1046A0004A1048A0504049B04A4E444445F0454065
:1046B000694853FC40404040404001000200041063
:1046C0001FF81010101010101FF0101010101FF015
:1046D0001010101010101FF0101000047FFE400486
:1046E00040245FF4400440044FE448244824482414
:1046F0004FE448244004401440080040784048A05B
:1047000050A05110620E55144910491049106910FB
:1047100051104110411042104410100010081FFCAD
:10472000200040101FF8121011101014FFFE12107C
:10473000111020103FF8002001C00800080808FCF4
:104740007E0808080808FEF8088828802E8028843B
:104750002884687C58008FFE0000100417FE14A403
:1047600014A4FFFC144410401BF83040D0441FFE3A
:1047700010801110120857FC2204100413FE1000C0
:104780007CF85488548854F8540055FC552455241A
:104790005DFC1124112411FC11043FF820082008AD
:1047A0003FF8222022202FF8222022203FFE2488BA
:1047B00024502430450E86040400000447FE542093
:1047C000544055FC5504552455245524552455244E
:1047D000552454504448848601020208411030A0F8
:1047E00017FC00400248F2481248124813F81248D9
:1047F00010401080290047FE0000102010201020DB
:104800001E20202020247DFE90201020FE2010203D
:10481000122014201820102000201FF0101010105B
:104820001FF0101010101FF0080008041FFE244491
:10483000444488841084212806101110111811D4C2
:1048400015505A7E535054909A90112812282046A1
:104850002884440042A882A404040008003C7BC0D1
:10486000492448A84BFE7A024D0449DE7A444D544F
:10487000489448BE79044A0400041020082000200F
:10488000FF20247E22844144A4441448082814288C
:1048900014102228422880460184004008407C40B1
:1048A0004840484048444FFE4840484048404840FF
:1048B0007840484000400040004000802080208038
:1048C000208020843FFE200020003FC02040204068
:1048D00020402040204040408040100817FC110834
:1048E0001108FD101110313C3984558851489250FF
:1048F000122012501488190E12040010001000101B
:10490000FC1005FE0410481029101090109028107B
:10491000241044108010005000202080108410FECD
:10492000FE80210022FE3C22242424A024A024BCBA
:1049300024A044A055608A20041E0200420833FCD3
:10494000140087F8680027F0001010102010E01005
:1049500020102010200A200A20060040404030404D
:10496000104487FE644424440C44144427FCE4446B
:1049700024442444244427FC24041080108820FC70
:1049800021084590FA50106020204C50F08E43646E
:1049900000101C08E0C04030000801207FA040202B
:1049A00040207F24487E48244F2449244924492418
:1049B000494451445684A0A801100004FFFE0100A0
:1049C000010001083FFC2108294825282108294821
:1049D0002528210821082128201001847E040804AC
:1049E00008240924FFA40824082409247FA44124BE
:1049F0004124410441047F1441081008103C17C0B1
:104A00001248FD48115016001BFC3440D0441FFED4
:104A100010401248124853F82008020001007FFE9F
:104A20004822921404003FF8220823C824482A8808
:104A30002108228824083FF8200800047FFE400453
:104A400040245FF4410441044FE4410441444124C3
:104A50005FF4400440047FFC40040420FE20102842
:104A600011FC102020203C2467FEA4202420244098
:104A7000248025083DFC2004000000107DF8101063
:104A80001110111021103D106510A5FC24042424E0
:104A900027F424043C042414000804101FF8101008
:104AA00012101110FFFE10101210215040203FF87C
:104AB000244824482448FFFE000002000104FFFEB1
:104AC000044012901110129014501FF001047FFE48
:104AD000420444444FE4401440080200010001082D
:104AE0007FFC01000100010001103FF801000100FE
:104AF000010001000104FFFE000000000820082062
:104B00000820082008200820085008500850145099
:104B100012882188210C4206840408400840084875
:104B20007FFC08480A481CC8684808A8088A290A5F
:104B30001204000048884446844208080BFC0A0816
:104B40001208120833F8324050449FFE104010E023
:104B500011501248144E1844104010801060102458
:104B600013FEFE04120416041BFC3204D2001200D1
:104B700012001200140054002800084008400840A9
:104B800010401F4021602150624892460A42044072
:104B900008401040204040400040021044102F9038
:104BA00028900FBE88C44FA442281FA82428C7906D
:104BB000449044A848A84B465084044004503F48C1
:104BC0000440FFFE104014403FA06424BF2824305E
:104BD0003F20245224923F8A20060440044004448B
:104BE000FC7E0440044004487C7C044004400440B3
:104BF0000444FC7E04400440044000103FF82010B0
:104C000020103FF0200420041FFC08200824FFFE91
:104C10000820082008201020202000101FF8101065
:104C200010101FF0101010101FF014504444344C9A
:104C3000145004400444FFFE000000103FF8000040
:104C4000000000000004FFFE0100010011203110EF
:104C5000410C81040100050002001020112410A461
:104C60001CA8202021FC7D04912411247D241124E2
:104C700011241420185811840602010001000100BB
:104C8000010801187D2005C0058009400920111088
:104C9000210E4104810005000200000843FC320897
:104CA000120883F8620822080BF8100027FCE4A41D
:104CB00024A424A424A42FFE20000040404837FC54
:104CC000104083F860402FFE080013F8120863F8C4
:104CD000220823F82208222822100040784048A009
:104CE00050A05110620855F6484048404FFC6840BB
:104CF0005150424C444441404080104010483EFCDA
:104D0000492001003FF801000100FFFE00407FFC48
:104D1000084004400440014000800840084813FC5B
:104D200020404840084417FE3010501097FE1010E5
:104D30001110109010901010106000083FFC200817
:104D400020083FF8222021402FFC222022203FFE75
:104D500022202220422084200820008008807C8895
:104D600049FC49084A504A404C404840484078A0D5
:104D700048A000900108060E180400103FF820100B
:104D8000285024502290229021102110229022900D
:104D9000245028503012400A800620041BFE0804CC
:104DA000408440845FF44084418442844484488445
:104DB000508440844284411440081110111017FEA1
:104DC0001110FD1013F832083BF8560853F89040C4
:104DD0001FFE104010B0110E1604010001000280E9
:104DE0000440082010102FEEC104010001000FE064
:104DF0000100010001007FFC000002000200020827
:104E000003FC02000200020002103FF820102010F4
:104E10002010201020103FF0201001001100110080
:104E200011101FF8210041000104FFFE0100028063
:104E3000028004400830100E60040404444434C46A
:104E4000152404247FA4042404240424FFA404249B
:104E5000082408041004201400081010111010D0A9
:104E60001050FC10111014D018503010D01E17F034
:104E700010101010101050102010000807FC7908B6
:104E8000490849104920493C498449884A487A5090
:104E90004C2004500888110E02040400F9FC10880C
:104EA000545038201050FE8E1324302039FC5420EA
:104EB000502493FE102010201020010001087FFCD8
:104EC00001001FF010101FF010101FF010101FF045
:104ED0001010FFFE08201018200801000100090032
:104EE00009201110210C41040000010001087FFC81
:104EF000010001000104FFFE000002407F4002406B
:104F000004400840084008400BC01C40E8400840EE
:104F1000084008420842283E10001008101C11E00A
:104F20001100FD0011FC310439845548514891505D
:104F3000122012201450188E130410801088249808
:104F400044A0FEC002847C84447C44007C88449855
:104F500044A07CC044825482487E00047DFE04202C
:104F6000284011FC1104FF241524112411241124BC
:104F70001124112410585086230201001110092019
:104F80007FFE40028FE408200FE001001FF01110A7
:104F900011101150112001000100108010801088A4
:104FA00014FC57805850502290D2170E100017FC56
:104FB00029202520452282220C1E00087FFC0100AA
:104FC000010001000104FFFE010002800280044094
:104FD000044008201010200EC004001000783F800C
:104FE000200020043FFE20002000200827FC240889
:104FF00024084408440887F804081040104012446C
:10500000114CFD50104017FC18043004D00413FC60
:1050100010041004100457FC2004000018002400A1
:105020002400180000000000000000000000000044
:10503000000000000000000000003FF801007FFEBB
:1050400041029D7401001D7008801FFC308057F8DC
:10505000908017F810801FFE100008000C00080850
:105060000FFC100811102100410089400920111087
:105070001108210C41040500020008040BFE08047D
:10508000102417F43004500493E412241224122440
:10509000122413E412041014100800083EFC2288A5
:1050A000228822883EB0228022FC22A43EA422A88C
:1050B000229022A822A84AC6848401000100010887
:1050C0007FFC0100111009200104FFFE0100028095
:1050D000028004400830300EC004020002000200CA
:1050E00002087FFC020802080208020802080408FD
:1050F0000408080810882050C020000007C018309D
:1051000020082008400440044004400440042008D3
:105110002008183007C000000000000007C01FF082
:105120003FF83FF87FFC7FFC7FFC7FFC7FFC3FF873
:105130003FF81FF007C00000000000807C404440A2
:1051400048044FFE5080488848FC4488448844887E
:1051500068885108410842504420020001007FFE47
:1051600040028444093012900440082010102FEEB1
:10517000C824082008200FE00820100010081FFC99
:1051800020002FF04000BFE0002000200020002081
:10519000002000220012000A0004200417FE100460
:1051A00045444524490449F45F04692448C44884BB
:1051B00049444A5448344804400C00047FFE4924C2
:1051C00045445FF442047FFC44444FE4745C4584EE
:1051D000442443E440047FFC40041080108010808D
:1051E000108813FCFC8810881088108817FE108027
:1051F0001D40F1204210040E0804020001087FFC4B
:10520000044014501448244444441FF0082004402F
:105210000280010002C00C3C300801000100038044
:10522000038007C00100010001000100010001002E
:105230000100010001000100010001000100010066
:105240000100010001000100010001000100010056
:1052500007C003800380010001000000000000007F
:105260000000000000200038FFFE00380020000091
:10527000000000000000000000000040402027FE69
:105280002490049007FEE490249024F024002554F8
:105290002952325250008C0003FE00007C0445FE6F
:1052A000490449045104490449FC450445044504A2
:1052B0006904510441FC41044000020001007FFEEA
:1052C000400289241110210C5FF4111011101110EB
:1052D0001110115011200100010000200020FC20BD
:1052E00011FE112211247D2011FC110411881E4889
:1052F000F25042200450088E030400400024FBFEBC
:10530000209022642294FB0C23FC204027FE2442A0
:105310003C92E5FA440A0402040C20102710397C60
:10532000411482FE7A14247C2710F97C2110251068
:1053300022FE2A1035102890007E082004407FFCB1
:105340000440244814500440FFFE00001FF01010D9
:1053500010101FF0101010101FF003F8401030A0B4
:10536000104003F80248F24813F81248124813F8A4
:10537000124812682A50440003FE084048482BFC9B
:105380000840184029F84A000904FFFE02000510F1
:105390000CA03440C530060E040411001108111C85
:1053A00011E0FD02110214FE180031FCD1041104B9
:1053B00011FC1104110451FC2104010001000280C0
:1053C00004400A201110210EC0041FF0001000201C
:1053D00004400280010000800080002000407884AA
:1053E0004BFE4A044A044AF44A944A944A944A9422
:1053F0007AF44A04020402140208010000843FFE09
:105400002000210428842484244822482248221091
:105410002210402040449FFE000000407C40444455
:1054200054FE548855085688548854885450545013
:10543000102028602490450E820470B501460C4669
:105440000B460A4602F00406154666F39F0503F074
:10545000380645EA461504F0C00645EA062002462D
:1054600070BD000000B52648006A40F48000244961
:105470000862244801684FF480008843204988630B
:105480000846006A4CF2137108431D490862084639
:10549000806B1C490A684CF2137191430843184908
:1054A00088631848006840F40040C86315480068E5
:1054B00040F48000C863134801684FF480008843BB
:1054C0000F4988630A2002F0BFFA0D48006A4CF2C7
:1054D000137108430A4908620A4801684FF4004002
:1054E0008843074988630748006840F48000C86320
:1054F000044801684FF4800088430149886300BD77
:1055000000C00920F401001070B50020A9490880EE
:10551000A9490880A94908800021084606F026FB11
:105520000CF068F8A4480288A5A1A648FAF764FE22
:105530004020A54908801020A4490880A1480AF00D
:1055400019FFA34800680EF0BFF8044622460B4638
:10555000A0A19C48FAF750FE0D209C490880242009
:105560009949088097480AF005FF05209B49088063
:1055700001E005F043FF9A480068FF28F9D117E1E0
:1055800005F03CFF964800680A2863D00B287DD0C0
:105590000D2802D00E2846D146E0FFF763FF87486A
:1055A0000088E0B10020854908804FF47A708D4969
:1055B00088614862092008657020834908800A20B4
:1055C0008249088088A00DF071FB10207F49088077
:1055D00087A00AF0ABFF87A00DF068FB1CE001205C
:1055E000764908804FF47A707E4988617248008855
:1055F000C0F57A70486209200865702072490880F9
:105600000A20724908807DA00DF050FB10206F49E0
:1056100008807CA00AF08AFF01E005F0EFFE7048E8
:105620000068FF28F9D186E06448008888B9FFF750
:1056300019FF0DF09BF800205E490880052067499E
:10564000088001E005F0DAFE65480068FF28F9D11E
:1056500070BD70E0FFF706FF57480088322801DC74
:10566000002002E054480088323853490880084638
:1056700000880A2190FBF1F4224651A15148FAF723
:10568000BBFD402050490880102000E01AE04F493F
:1056900008804C480AF06EFE4848008850B14FF42C
:1056A0007A705049886144480088C0F57A70486231
:1056B0000920086501E005F0A1FE49480068FF28BF
:1056C000F9D138E0FFF7CEFE3B48008840F2B63112
:1056D000884202DB4FF47A7002E0374800883230AB
:1056E00035490880084600880A2190FBF1F42246DB
:1056F00033A13448FAF780FD402033490880102058
:10570000324908802F480AF035FE2C48008850B1F5
:105710004FF47A703349886127480088C0F57A7061
:1057200048620920086501E005F068FE2C48006821
:10573000FF28F9D100BF00BF3548008808B105F047
:10574000E3FF3448008868B10020324908803248BD
:105750000088401E80B23049088008B90A200880BD
:1057600006F024F82D48008810B300202B4908804B
:10577000012001F05BFF19480088401E80B21749E4
:105780000880A8B905200880114800680DF09CFF2A
:10579000044622460B460FA10A48FAF72DFD0D20BC
:1057A0000A49088024200849088006480AF0E2FDDA
:1057B000E6E60000CA000010CC0000102A0200102B
:1057C00025336400E8150010C8000010C600001062
:1057D0009000001025362E32660000009A0100105D
:1057E0005801001000800140BCCCD0F8000000003F
:1057F00046330000B7B5BBD800000000D4DDCDA310
:105800000000000020202020202020200000000098
:105810007C0100107E010010C80100103000001053
:1058200070B500240CF034FF0020BB490880BB4950
:105830000880BB49BB4800680DF0E0FF044600212A
:1058400020460EF01DF902D284F0004000E0204610
:105850000446B54804600021084606F087F9052093
:10586000B2490880002001F0E1FE022120460BF041
:105870007BF801E005F0C2FDAD480068FF28F9D1D2
:1058800048E105F0BBFDAA4800680A287DD00B2836
:105890007CD00E2802D00F2879D115E0FFF7E2FD69
:1058A0000021084606F062F90BF04AF900209A49F7
:1058B000088005209D49088001E005F09FFD9C4877
:1058C0000068FF28F9D170BDFFF7CCFD002120460C
:1058D0000EF056F812D00021934800680EF050F8F0
:1058E0000CD02146934800680DF088FF05468E488D
:1058F000016828460EF0F8F88E4908608D48006867
:105900000DF0E2FE05468C4A8C4B0DF06DFD02D881
:105910008B4888490860874800680DF0D5FE054629
:105920000022884B0DF09AFE03D84FF07E5081493B
:105930000860804801684FF07E500DF05FFF05461B
:105940000EF052F88049086004230A463821A0204E
:1059500002F05AFF142002F077F84FF080417548AA
:1059600000680EF0C1F879490860084601684FF0F8
:105970007E500DF043FF05460EF036F87249086080
:1059800004230A463C21A02002E012E02BE043E081
:1059900002F03AFF022120460AF0E6FF142002F04E
:1059A00053F801E005F02AFD61480068FF28F9D1AD
:1059B00079E0FFF757FD5948008818B90320574987
:1059C000088004E055480088401E544908800221A0
:1059D00020460AF0C9FF01E005F010FD54480068B8
:1059E000FF28F9D15FE0FFF73DFD4C480088032810
:1059F00001D1002002E049480088401C4749088046
:105A0000022120460AF0B0FF01E005F0F7FC48480B
:105A10000068FF28F9D146E045480068092841D8C8
:105A2000FFF720FD404800680DF04EFE05462A466F
:105A30000B4647A14848FAF7DFFB384800880128A1
:105A400007DA3B48006830304349344A12888854AA
:105A500008E0374800683030C1B23F4A2F4800881C
:105A6000401C11543C4808F085FF05460DF0B4FA7F
:105A70002D49086029480088032803D100202749C0
:105A8000088004E025480088401C24490880022141
:105A900020460AF069FF01E005F0B0FC24480068E8
:105AA000FF28F9D100BF00BF2C48008808B105F0DD
:105AB0002BFE2B48008890B1002029490880184906
:105AC000184800680DF09AFE0446002120460DF0AB
:105AD000D7FF02D284F0004000E02046044621486F
